00ORDERS00364067IMIFARMA BENEVIDES                 33247743004298                                                                                                                                                                                                                                                                                                                                                                                                 
0100000000036406720170508000000000000000020170508001                                 04899316034284             IMIFARMA PROD FARM COSM S/A        ROD BR 316 KM 23/24, SN            ITAPEPOCU                          BENEVIDES                          PA68795000 04899316034284155321153                        04899316034284             33247743004298CIF0000000000000000000000000000001                         220                                     
021 5  1  0450000010000                                                                                                                                                                                                                                                                                                                                                                                                                                           
030000017896251801557 EN 000000000000144   001000000000035310000000000   0000000800001                                                                                                                                                                                                                                                                                                                                                                            
030000027896251801533 EN 000000000000144   001000000000028060000000000   0000000800001                                                                                                                                                                                                                                                                                                                                                                            
030000037896251801540 EN 000000000000216   001000000000030380000000000   0000000800001                                                                                                                                                                                                                                                                                                                                                                            
